{
  "_format": "hh-sol-artifact-1",
  "contractName": "NeoTrader",
  "sourceName": "contracts/NeoTrader.sol",
  "abi": [
    {
      "inputs": [
        {
          "internalType": "contract IUniswapV2Router02",
          "name": "_swapRouterV2",
          "type": "address"
        },
        {
          "internalType": "contract IUniswapV2Factory",
          "name": "_v2Factory",
          "type": "address"
        }
      ],
      "stateMutability": "nonpayable",
      "type": "constructor"
    },
    {
      "stateMutability": "payable",
      "type": "fallback"
    },
    {
      "inputs": [],
      "name": "AMOUNT",
      "outputs": [
        {
          "internalType": "uint256",
          "name": "",
          "type": "uint256"
        }
      ],
      "stateMutability": "view",
      "type": "function"
    },
    {
      "inputs": [
        {
          "internalType": "address",
          "name": "token0",
          "type": "address"
        },
        {
          "internalType": "address",
          "name": "token1",
          "type": "address"
        }
      ],
      "name": "getPoolV2",
      "outputs": [
        {
          "internalType": "address",
          "name": "v2PoolAddress",
          "type": "address"
        }
      ],
      "stateMutability": "view",
      "type": "function"
    },
    {
      "inputs": [
        {
          "internalType": "address",
          "name": "token0",
          "type": "address"
        },
        {
          "internalType": "address",
          "name": "token1",
          "type": "address"
        }
      ],
      "name": "getPriceV2",
      "outputs": [
        {
          "internalType": "uint256",
          "name": "quoteAmount",
          "type": "uint256"
        }
      ],
      "stateMutability": "view",
      "type": "function"
    },
    {
      "inputs": [
        {
          "internalType": "address",
          "name": "tokenAddress",
          "type": "address"
        },
        {
          "internalType": "uint256",
          "name": "amountEthIn",
          "type": "uint256"
        },
        {
          "internalType": "address",
          "name": "sender",
          "type": "address"
        }
      ],
      "name": "swapETHForExactTokensV2",
      "outputs": [
        {
          "internalType": "uint256",
          "name": "amountOut",
          "type": "uint256"
        }
      ],
      "stateMutability": "payable",
      "type": "function"
    },
    {
      "inputs": [
        {
          "internalType": "address",
          "name": "tokenAddress",
          "type": "address"
        },
        {
          "internalType": "uint256",
          "name": "amountTokenIn",
          "type": "uint256"
        },
        {
          "internalType": "address",
          "name": "sender",
          "type": "address"
        }
      ],
      "name": "swapExactTokensForETHV2",
      "outputs": [
        {
          "internalType": "uint256",
          "name": "amountOut",
          "type": "uint256"
        }
      ],
      "stateMutability": "payable",
      "type": "function"
    },
    {
      "inputs": [
        {
          "internalType": "uint256",
          "name": "amountIn",
          "type": "uint256"
        },
        {
          "internalType": "address",
          "name": "token0",
          "type": "address"
        },
        {
          "internalType": "address",
          "name": "token1",
          "type": "address"
        },
        {
          "internalType": "address",
          "name": "sender",
          "type": "address"
        }
      ],
      "name": "swapExactTokensForTokensV2",
      "outputs": [
        {
          "internalType": "uint256",
          "name": "amountOut",
          "type": "uint256"
        }
      ],
      "stateMutability": "payable",
      "type": "function"
    },
    {
      "inputs": [],
      "name": "swapRouterV2",
      "outputs": [
        {
          "internalType": "contract IUniswapV2Router02",
          "name": "",
          "type": "address"
        }
      ],
      "stateMutability": "view",
      "type": "function"
    },
    {
      "inputs": [],
      "name": "v2Factory",
      "outputs": [
        {
          "internalType": "contract IUniswapV2Factory",
          "name": "",
          "type": "address"
        }
      ],
      "stateMutability": "view",
      "type": "function"
    },
    {
      "stateMutability": "payable",
      "type": "receive"
    }
  ],
  "bytecode": "0x60c060405234801561001057600080fd5b506040516115e43803806115e483398101604081905261002f9161005e565b6001600160a01b039182166080521660a052610098565b6001600160a01b038116811461005b57600080fd5b50565b6000806040838503121561007157600080fd5b825161007c81610046565b602084015190925061008d81610046565b809150509250929050565b60805160a0516114cd6101176000396000818161014c01526109a101526000818160ed015281816102d8015281816103ba0152818161046b0152818161059c015281816105c801528181610697015281816107a60152818161086501528181610891015281816108c201528181610a3c0152610d8601526114cd6000f3fe6080604052600436106100795760003560e01c8063aa47446a1161004b578063aa47446a14610127578063b4b57c391461013a578063d17891761461016e578063d9e6e6aa1461018a57005b80630ea8388a146100825780633d864548146100b55780637431bf2e146100c8578063744fbc7a146100db57005b3661008057005b005b34801561008e57600080fd5b506100a261009d3660046110bd565b6101aa565b6040519081526020015b60405180910390f35b6100a26100c33660046110f6565b610358565b6100a26100d6366004611138565b610539565b3480156100e757600080fd5b5061010f7f000000000000000000000000000000000000000000000000000000000000000081565b6040516001600160a01b0390911681526020016100ac565b6100a26101353660046110f6565b610744565b34801561014657600080fd5b5061010f7f000000000000000000000000000000000000000000000000000000000000000081565b34801561017a57600080fd5b506100a2670de0b6b3a764000081565b34801561019657600080fd5b5061010f6101a53660046110bd565b61095e565b6000806000806101ba868661095e565b90506001600160a01b0381166102175760405162461bcd60e51b815260206004820152601460248201527f763220706f6f6c206973206e6f7420657869737400000000000000000000000060448201526064015b60405180910390fd5b6000819050806001600160a01b0316630902f1ac6040518163ffffffff1660e01b8152600401606060405180830381865afa15801561025a573d6000803e3d6000fd5b505050506040513d601f19601f8201168201806040525081019061027e91906111ae565b506040517f054d50d4000000000000000000000000000000000000000000000000000000008152670de0b6b3a764000060048201526dffffffffffffffffffffffffffff80841660248301528216604482015291955093507f00000000000000000000000000000000000000000000000000000000000000006001600160a01b03169063054d50d490606401602060405180830381865afa158015610327573d6000803e3d6000fd5b505050506040513d601f19601f8201168201806040525081019061034b91906111f3565b9450505050505b92915050565b60008083116103a95760405162461bcd60e51b815260206004820152601a60248201527f20494e53554646494349454e545f494e5055545f414d4f554e54000000000000604482015260640161020e565b60006103b485610a15565b905060007f00000000000000000000000000000000000000000000000000000000000000006001600160a01b031663d06ca61f86846040518363ffffffff1660e01b8152600401610406929190611250565b600060405180830381865afa158015610423573d6000803e3d6000fd5b505050506040513d6000823e601f3d908101601f1916820160405261044b919081019061127f565b60018151811061045d5761045d61133d565b6020026020010151905060007f00000000000000000000000000000000000000000000000000000000000000006001600160a01b0316637ff36ab58784868961012c426104aa9190611353565b6040518663ffffffff1660e01b81526004016104c99493929190611374565b60006040518083038185885af11580156104e7573d6000803e3d6000fd5b50505050506040513d6000823e601f3d908101601f19168201604052610510919081019061127f565b9050806000815181106105255761052561133d565b602002602001015193505050509392505050565b600080851161058a5760405162461bcd60e51b815260206004820152601a60248201527f20494e53554646494349454e545f494e5055545f414d4f554e54000000000000604482015260640161020e565b61059684833088610b21565b6105c2847f00000000000000000000000000000000000000000000000000000000000000006000610bd8565b6105ed847f000000000000000000000000000000000000000000000000000000000000000087610bd8565b60408051600280825260608201835260009260208301908036833701905050905084816000815181106106225761062261133d565b60200260200101906001600160a01b031690816001600160a01b03168152505083816001815181106106565761065661133d565b6001600160a01b0392831660209182029290920101526040517f38ed17390000000000000000000000000000000000000000000000000000000081526000917f000000000000000000000000000000000000000000000000000000000000000016906338ed1739906106d4908a90859087908a9042906004016113a9565b6000604051808303816000875af11580156106f3573d6000803e3d6000fd5b505050506040513d6000823e601f3d908101601f1916820160405261071b919081019061127f565b9050806000815181106107305761073061133d565b602002602001015192505050949350505050565b60008083116107955760405162461bcd60e51b815260206004820152601a60248201527f20494e53554646494349454e545f494e5055545f414d4f554e54000000000000604482015260640161020e565b60006107a085610d2b565b905060007f00000000000000000000000000000000000000000000000000000000000000006001600160a01b031663d06ca61f86846040518363ffffffff1660e01b81526004016107f2929190611250565b600060405180830381865afa15801561080f573d6000803e3d6000fd5b505050506040513d6000823e601f3d908101601f19168201604052610837919081019061127f565b6001815181106108495761084961133d565b6020026020010151905061085f86853088610b21565b61088b867f00000000000000000000000000000000000000000000000000000000000000006000610bd8565b6108b6867f000000000000000000000000000000000000000000000000000000000000000087610bd8565b60006001600160a01b037f0000000000000000000000000000000000000000000000000000000000000000166318cbafe5878486896108f761012c42611353565b6040518663ffffffff1660e01b81526004016109179594939291906113a9565b6000604051808303816000875af1158015610936573d6000803e3d6000fd5b505050506040513d6000823e601f3d908101601f19168201604052610510919081019061127f565b6040517fe6a439050000000000000000000000000000000000000000000000000000000081526001600160a01b03838116600483015282811660248301526000917f00000000000000000000000000000000000000000000000000000000000000009091169063e6a4390590604401602060405180830381865afa1580156109ea573d6000803e3d6000fd5b505050506040513d601f19601f82011682018060405250810190610a0e91906113e5565b9392505050565b604080516002808252606080830184529260009291906020830190803683370190505090507f00000000000000000000000000000000000000000000000000000000000000006001600160a01b031663ad5c46486040518163ffffffff1660e01b8152600401602060405180830381865afa158015610a98573d6000803e3d6000fd5b505050506040513d601f19601f82011682018060405250810190610abc91906113e5565b81600081518110610acf57610acf61133d565b60200260200101906001600160a01b031690816001600160a01b0316815250508281600181518110610b0357610b0361133d565b6001600160a01b039092166020928302919091019091015292915050565b6040516001600160a01b0380851660248301528316604482015260648101829052610bd29085907f23b872dd00000000000000000000000000000000000000000000000000000000906084015b60408051601f198184030181529190526020810180517bffffffffffffffffffffffffffffffffffffffffffffffffffffffff167fffffffff0000000000000000000000000000000000000000000000000000000090931692909217909152610e19565b50505050565b801580610c6b57506040517fdd62ed3e0000000000000000000000000000000000000000000000000000000081523060048201526001600160a01b03838116602483015284169063dd62ed3e90604401602060405180830381865afa158015610c45573d6000803e3d6000fd5b505050506040513d601f19601f82011682018060405250810190610c6991906111f3565b155b610cdd5760405162461bcd60e51b815260206004820152603660248201527f5361666545524332303a20617070726f76652066726f6d206e6f6e2d7a65726f60448201527f20746f206e6f6e2d7a65726f20616c6c6f77616e636500000000000000000000606482015260840161020e565b6040516001600160a01b038316602482015260448101829052610d269084907f095ea7b30000000000000000000000000000000000000000000000000000000090606401610b6e565b505050565b604080516002808252606080830184529260009291906020830190803683370190505090508281600081518110610d6457610d6461133d565b60200260200101906001600160a01b031690816001600160a01b0316815250507f00000000000000000000000000000000000000000000000000000000000000006001600160a01b031663ad5c46486040518163ffffffff1660e01b8152600401602060405180830381865afa158015610de2573d6000803e3d6000fd5b505050506040513d601f19601f82011682018060405250810190610e0691906113e5565b81600181518110610b0357610b0361133d565b6000610e6e826040518060400160405280602081526020017f5361666545524332303a206c6f772d6c6576656c2063616c6c206661696c6564815250856001600160a01b0316610efe9092919063ffffffff16565b805190915015610d265780806020019051810190610e8c9190611402565b610d265760405162461bcd60e51b815260206004820152602a60248201527f5361666545524332303a204552433230206f7065726174696f6e20646964206e60448201527f6f74207375636365656400000000000000000000000000000000000000000000606482015260840161020e565b6060610f0d8484600085610f15565b949350505050565b606082471015610f8d5760405162461bcd60e51b815260206004820152602660248201527f416464726573733a20696e73756666696369656e742062616c616e636520666f60448201527f722063616c6c0000000000000000000000000000000000000000000000000000606482015260840161020e565b600080866001600160a01b03168587604051610fa99190611448565b60006040518083038185875af1925050503d8060008114610fe6576040519150601f19603f3d011682016040523d82523d6000602084013e610feb565b606091505b5091509150610ffc87838387611007565b979650505050505050565b6060831561107657825160000361106f576001600160a01b0385163b61106f5760405162461bcd60e51b815260206004820152601d60248201527f416464726573733a2063616c6c20746f206e6f6e2d636f6e7472616374000000604482015260640161020e565b5081610f0d565b610f0d838381511561108b5781518083602001fd5b8060405162461bcd60e51b815260040161020e9190611464565b6001600160a01b03811681146110ba57600080fd5b50565b600080604083850312156110d057600080fd5b82356110db816110a5565b915060208301356110eb816110a5565b809150509250929050565b60008060006060848603121561110b57600080fd5b8335611116816110a5565b925060208401359150604084013561112d816110a5565b809150509250925092565b6000806000806080858703121561114e57600080fd5b843593506020850135611160816110a5565b92506040850135611170816110a5565b91506060850135611180816110a5565b939692955090935050565b80516dffffffffffffffffffffffffffff811681146111a957600080fd5b919050565b6000806000606084860312156111c357600080fd5b6111cc8461118b565b92506111da6020850161118b565b9150604084015163ffffffff8116811461112d57600080fd5b60006020828403121561120557600080fd5b5051919050565b600081518084526020808501945080840160005b838110156112455781516001600160a01b031687529582019590820190600101611220565b509495945050505050565b828152604060208201526000610f0d604083018461120c565b634e487b7160e01b600052604160045260246000fd5b6000602080838503121561129257600080fd5b825167ffffffffffffffff808211156112aa57600080fd5b818501915085601f8301126112be57600080fd5b8151818111156112d0576112d0611269565b8060051b604051601f19603f830116810181811085821117156112f5576112f5611269565b60405291825284820192508381018501918883111561131357600080fd5b938501935b8285101561133157845184529385019392850192611318565b98975050505050505050565b634e487b7160e01b600052603260045260246000fd5b8082018082111561035257634e487b7160e01b600052601160045260246000fd5b84815260806020820152600061138d608083018661120c565b6001600160a01b03949094166040830152506060015292915050565b85815284602082015260a0604082015260006113c860a083018661120c565b6001600160a01b0394909416606083015250608001529392505050565b6000602082840312156113f757600080fd5b8151610a0e816110a5565b60006020828403121561141457600080fd5b81518015158114610a0e57600080fd5b60005b8381101561143f578181015183820152602001611427565b50506000910152565b6000825161145a818460208701611424565b9190910192915050565b6020815260008251806020840152611483816040850160208701611424565b601f01601f1916919091016040019291505056fea2646970667358221220d67cc0aed6e300312ee159cb0d18a8a3e341c1de6f760e37d4906266ca500ae464736f6c63430008120033",
  "linkReferences": {},
  "deployedLinkReferences": {}
}