{
  "_format": "hh-sol-artifact-1",
  "contractName": "TokenChecker",
  "sourceName": "contracts/tokenChecker.sol",
  "abi": [
    {
      "inputs": [
        {
          "internalType": "address",
          "name": "_uniswapV2Router",
          "type": "address"
        }
      ],
      "stateMutability": "payable",
      "type": "constructor"
    },
    {
      "stateMutability": "payable",
      "type": "fallback"
    },
    {
      "inputs": [
        {
          "internalType": "address",
          "name": "tokenAddress",
          "type": "address"
        }
      ],
      "name": "check",
      "outputs": [
        {
          "internalType": "uint256",
          "name": "",
          "type": "uint256"
        },
        {
          "internalType": "uint256",
          "name": "",
          "type": "uint256"
        },
        {
          "internalType": "uint256",
          "name": "",
          "type": "uint256"
        },
        {
          "internalType": "uint256",
          "name": "",
          "type": "uint256"
        }
      ],
      "stateMutability": "payable",
      "type": "function"
    },
    {
      "stateMutability": "payable",
      "type": "receive"
    }
  ],
  "bytecode": "0x6080604052604051610b1b380380610b1b83398101604081905261002291610051565b600180546001600160a01b039092166001600160a01b0319928316811790915560008054909216179055610081565b60006020828403121561006357600080fd5b81516001600160a01b038116811461007a57600080fd5b9392505050565b610a8b806100906000396000f3fe60806040526004361061001f5760003560e01c8063c23697a81461002857005b3661002657005b005b61003b6100363660046107dd565b61005f565b60408051948552602085019390935291830152606082015260800160405180910390f35b6000806000806000806100728734610095565b915091506000806100838984610356565b949a9399509750929550909350505050565b6000808330846100ec5760405162461bcd60e51b815260206004820152601a60248201527f20494e53554646494349454e545f494e5055545f414d4f554e5400000000000060448201526064015b60405180910390fd5b60006100f7876105d0565b6000805460405163d06ca61f60e01b815292935090916001600160a01b039091169063d06ca61f9061012f908a908690600401610845565b600060405180830381865afa15801561014c573d6000803e3d6000fd5b505050506040513d6000823e601f3d908101601f19168201604052610174919081019061087c565b6001815181106101865761018661093a565b60209081029190910101516040516370a0823160e01b81526001600160a01b0385811660048301529192506000918616906370a0823190602401602060405180830381865afa1580156101dd573d6000803e3d6000fd5b505050506040513d601f19601f820116820180604052508101906102019190610950565b600080549192506001600160a01b039091169063b6f9de95908a90868861022a6107084261097f565b6040518663ffffffff1660e01b81526004016102499493929190610992565b6000604051808303818588803b15801561026257600080fd5b505af1158015610276573d6000803e3d6000fd5b50506040516370a0823160e01b81526001600160a01b038881166004830152600094506102f493508592508916906370a0823190602401602060405180830381865afa1580156102ca573d6000803e3d6000fd5b505050506040513d601f19601f820116820180604052508101906102ee9190610950565b906106cf565b9050600081116103465760405162461bcd60e51b815260206004820152601060248201527f62757941637475616c4f7574203e20300000000000000000000000000000000060448201526064016100e3565b9199919850909650505050505050565b6000808330846103a85760405162461bcd60e51b815260206004820152601a60248201527f20494e53554646494349454e545f494e5055545f414d4f554e5400000000000060448201526064016100e3565b60006103b3876106e4565b6000805460405163d06ca61f60e01b815292935090916001600160a01b039091169063d06ca61f906103eb908a908690600401610845565b600060405180830381865afa158015610408573d6000803e3d6000fd5b505050506040513d6000823e601f3d908101601f19168201604052610430919081019061087c565b6001815181106104425761044261093a565b60209081029190910101516001546040517f095ea7b30000000000000000000000000000000000000000000000000000000081526001600160a01b039182166004820152602481018a905291925085169063095ea7b3906044016020604051808303816000875af11580156104bb573d6000803e3d6000fd5b505050506040513d601f19601f820116820180604052508101906104df91906109c7565b61052b5760405162461bcd60e51b815260206004820152600f60248201527f417070726f7665204661696c65642e000000000000000000000000000000000060448201526064016100e3565b600080546001600160a01b03808616319291169063791ac947908a9086886105556107084261097f565b6040518663ffffffff1660e01b81526004016105759594939291906109e9565b600060405180830381600087803b15801561058f57600080fd5b505af11580156105a3573d6000803e3d6000fd5b50600092506105bf9150506001600160a01b03861631836106cf565b929a92995091975050505050505050565b6040805160028082526060808301845292600092919060208301908036833701905050905060008054906101000a90046001600160a01b03166001600160a01b031663ad5c46486040518163ffffffff1660e01b8152600401602060405180830381865afa158015610646573d6000803e3d6000fd5b505050506040513d601f19601f8201168201806040525081019061066a9190610a25565b8160008151811061067d5761067d61093a565b60200260200101906001600160a01b031690816001600160a01b03168152505082816001815181106106b1576106b161093a565b6001600160a01b039092166020928302919091019091015292915050565b60006106db8284610a42565b90505b92915050565b60408051600280825260608083018452926000929190602083019080368337019050509050828160008151811061071d5761071d61093a565b60200260200101906001600160a01b031690816001600160a01b03168152505060008054906101000a90046001600160a01b03166001600160a01b031663ad5c46486040518163ffffffff1660e01b8152600401602060405180830381865afa15801561078e573d6000803e3d6000fd5b505050506040513d601f19601f820116820180604052508101906107b29190610a25565b816001815181106106b1576106b161093a565b6001600160a01b03811681146107da57600080fd5b50565b6000602082840312156107ef57600080fd5b81356107fa816107c5565b9392505050565b600081518084526020808501945080840160005b8381101561083a5781516001600160a01b031687529582019590820190600101610815565b509495945050505050565b82815260406020820152600061085e6040830184610801565b949350505050565b634e487b7160e01b600052604160045260246000fd5b6000602080838503121561088f57600080fd5b825167ffffffffffffffff808211156108a757600080fd5b818501915085601f8301126108bb57600080fd5b8151818111156108cd576108cd610866565b8060051b604051601f19603f830116810181811085821117156108f2576108f2610866565b60405291825284820192508381018501918883111561091057600080fd5b938501935b8285101561092e57845184529385019392850192610915565b98975050505050505050565b634e487b7160e01b600052603260045260246000fd5b60006020828403121561096257600080fd5b5051919050565b634e487b7160e01b600052601160045260246000fd5b808201808211156106de576106de610969565b8481526080602082015260006109ab6080830186610801565b6001600160a01b03949094166040830152506060015292915050565b6000602082840312156109d957600080fd5b815180151581146107fa57600080fd5b85815284602082015260a060408201526000610a0860a0830186610801565b6001600160a01b0394909416606083015250608001529392505050565b600060208284031215610a3757600080fd5b81516107fa816107c5565b818103818111156106de576106de61096956fea2646970667358221220c5882585cdc638ce5b8d574209e043d754244f21c53220829ea3af60b86bc33864736f6c63430008120033",
  "linkReferences": {},
  "deployedLinkReferences": {}
}