{
  "_format": "hh-sol-artifact-1",
  "contractName": "Trader",
  "sourceName": "contracts/Trader.sol",
  "abi": [
    {
      "inputs": [
        {
          "internalType": "contract ISwapRouter",
          "name": "_swapRouterV3",
          "type": "address"
        },
        {
          "internalType": "contract IUniswapV2Router02",
          "name": "_swapRouterV2",
          "type": "address"
        },
        {
          "internalType": "contract IUniswapV3Factory",
          "name": "_v3Factory",
          "type": "address"
        },
        {
          "internalType": "contract IUniswapV2Factory",
          "name": "_v2Factory",
          "type": "address"
        }
      ],
      "stateMutability": "nonpayable",
      "type": "constructor"
    },
    {
      "inputs": [],
      "name": "T",
      "type": "error"
    },
    {
      "inputs": [],
      "name": "AMOUNT",
      "outputs": [
        {
          "internalType": "uint256",
          "name": "",
          "type": "uint256"
        }
      ],
      "stateMutability": "view",
      "type": "function"
    },
    {
      "inputs": [
        {
          "internalType": "address",
          "name": "token0",
          "type": "address"
        },
        {
          "internalType": "address",
          "name": "token1",
          "type": "address"
        }
      ],
      "name": "getBestPrice",
      "outputs": [
        {
          "internalType": "address",
          "name": "poolAddress",
          "type": "address"
        },
        {
          "internalType": "bool",
          "name": "typeVersion",
          "type": "bool"
        },
        {
          "internalType": "uint256",
          "name": "currentPrice",
          "type": "uint256"
        }
      ],
      "stateMutability": "view",
      "type": "function"
    },
    {
      "inputs": [
        {
          "internalType": "address",
          "name": "token0",
          "type": "address"
        },
        {
          "internalType": "address",
          "name": "token1",
          "type": "address"
        }
      ],
      "name": "getPoolV2",
      "outputs": [
        {
          "internalType": "address",
          "name": "v2PoolAddress",
          "type": "address"
        }
      ],
      "stateMutability": "view",
      "type": "function"
    },
    {
      "inputs": [
        {
          "internalType": "address",
          "name": "token0",
          "type": "address"
        },
        {
          "internalType": "address",
          "name": "token1",
          "type": "address"
        }
      ],
      "name": "getPoolV3",
      "outputs": [
        {
          "internalType": "address[]",
          "name": "",
          "type": "address[]"
        }
      ],
      "stateMutability": "view",
      "type": "function"
    },
    {
      "inputs": [
        {
          "internalType": "address",
          "name": "token0",
          "type": "address"
        },
        {
          "internalType": "address",
          "name": "token1",
          "type": "address"
        }
      ],
      "name": "getPriceV2",
      "outputs": [
        {
          "internalType": "uint256",
          "name": "quoteAmount",
          "type": "uint256"
        }
      ],
      "stateMutability": "view",
      "type": "function"
    },
    {
      "inputs": [
        {
          "internalType": "address",
          "name": "v3PoolAddress",
          "type": "address"
        },
        {
          "internalType": "address",
          "name": "token0",
          "type": "address"
        },
        {
          "internalType": "address",
          "name": "token1",
          "type": "address"
        }
      ],
      "name": "getPriceV3",
      "outputs": [
        {
          "internalType": "uint256",
          "name": "quoteAmount",
          "type": "uint256"
        }
      ],
      "stateMutability": "view",
      "type": "function"
    },
    {
      "inputs": [
        {
          "internalType": "uint256",
          "name": "amountIn",
          "type": "uint256"
        },
        {
          "internalType": "address",
          "name": "Pool",
          "type": "address"
        },
        {
          "internalType": "address",
          "name": "token0",
          "type": "address"
        },
        {
          "internalType": "address",
          "name": "token1",
          "type": "address"
        },
        {
          "internalType": "bool",
          "name": "typeVersion",
          "type": "bool"
        },
        {
          "internalType": "address",
          "name": "sender",
          "type": "address"
        }
      ],
      "name": "swap",
      "outputs": [],
      "stateMutability": "nonpayable",
      "type": "function"
    },
    {
      "inputs": [],
      "name": "swapRouterV2",
      "outputs": [
        {
          "internalType": "contract IUniswapV2Router02",
          "name": "",
          "type": "address"
        }
      ],
      "stateMutability": "view",
      "type": "function"
    },
    {
      "inputs": [],
      "name": "swapRouterV3",
      "outputs": [
        {
          "internalType": "contract ISwapRouter",
          "name": "",
          "type": "address"
        }
      ],
      "stateMutability": "view",
      "type": "function"
    },
    {
      "inputs": [],
      "name": "v2Factory",
      "outputs": [
        {
          "internalType": "contract IUniswapV2Factory",
          "name": "",
          "type": "address"
        }
      ],
      "stateMutability": "view",
      "type": "function"
    },
    {
      "inputs": [],
      "name": "v3Factory",
      "outputs": [
        {
          "internalType": "contract IUniswapV3Factory",
          "name": "",
          "type": "address"
        }
      ],
      "stateMutability": "view",
      "type": "function"
    }
  ],
  "bytecode": "0x6101006040523480156200001257600080fd5b5060405162001d9638038062001d96833981016040819052620000359162000071565b6001600160a01b0393841660805291831660a052821660c0521660e052620000d9565b6001600160a01b03811681146200006e57600080fd5b50565b600080600080608085870312156200008857600080fd5b8451620000958162000058565b6020860151909450620000a88162000058565b6040860151909350620000bb8162000058565b6060860151909250620000ce8162000058565b939692955090935050565b60805160a05160c05160e051611c4462000152600039600081816101b701526108eb01526000818161017001526105a80152600081816101310152818161037801528181610ba501528181610bd10152610ca00152600081816101de0152818161096c015281816109980152610a8e0152611c446000f3fe608060405234801561001057600080fd5b50600436106100c95760003560e01c8063b4b57c3911610081578063d17891761161005b578063d178917614610215578063d80e9f2b14610224578063d9e6e6aa1461023757600080fd5b8063b4b57c39146101b2578063b631e80b146101d9578063ccdfcd1b1461020057600080fd5b8063744fbc7a116100b2578063744fbc7a1461012c5780637c887c591461016b5780638dbbf5bb1461019257600080fd5b80630ea8388a146100ce5780634beaa70c146100f4575b600080fd5b6100e16100dc366004611732565b61024a565b6040519081526020015b60405180910390f35b610107610102366004611732565b6103f8565b604080516001600160a01b0390941684529115156020840152908201526060016100eb565b6101537f000000000000000000000000000000000000000000000000000000000000000081565b6040516001600160a01b0390911681526020016100eb565b6101537f000000000000000000000000000000000000000000000000000000000000000081565b6101a56101a0366004611732565b6104df565b6040516100eb91906117af565b6101537f000000000000000000000000000000000000000000000000000000000000000081565b6101537f000000000000000000000000000000000000000000000000000000000000000081565b61021361020e3660046117d0565b610790565b005b6100e1670de0b6b3a764000081565b6100e1610232366004611849565b6107bf565b610153610245366004611732565b6108a8565b60008060008061025a86866108a8565b90506001600160a01b0381166102b75760405162461bcd60e51b815260206004820152601460248201527f763220706f6f6c206973206e6f7420657869737400000000000000000000000060448201526064015b60405180910390fd5b6000819050806001600160a01b0316630902f1ac6040518163ffffffff1660e01b8152600401606060405180830381865afa1580156102fa573d6000803e3d6000fd5b505050506040513d601f19601f8201168201806040525081019061031e91906118b7565b506040517f054d50d4000000000000000000000000000000000000000000000000000000008152670de0b6b3a764000060048201526dffffffffffffffffffffffffffff80841660248301528216604482015291955093507f00000000000000000000000000000000000000000000000000000000000000006001600160a01b03169063054d50d490606401602060405180830381865afa1580156103c7573d6000803e3d6000fd5b505050506040513d601f19601f820116820180604052508101906103eb91906118fc565b9450505050505b92915050565b60008060008061040886866108a8565b9050600080806001600160a01b0384161561042a57610427898961024a565b92505b60006104368a8a6104df565b8051909150156104b15760005b81518110156104af57600061047283838151811061046357610463611915565b60200260200101518d8d6107bf565b90508481111561049c5780945082828151811061049157610491611915565b602002602001015193505b50806104a781611941565b915050610443565b505b828411156104c857849750600096508395506104d3565b819750600196508295505b50505050509250925092565b60408051600380825260808201909252606091600091906020820184803683370190505090506101f48160008151811061051b5761051b611915565b602002602001019062ffffff16908162ffffff1681525050610bb88160018151811061054957610549611915565b602002602001019062ffffff16908162ffffff16815250506127108160028151811061057757610577611915565b602002602001019062ffffff16908162ffffff16815250506105976116fc565b6000805b83518110156106df5760007f00000000000000000000000000000000000000000000000000000000000000006001600160a01b0316631698ee8289898886815181106105e9576105e9611915565b60209081029190910101516040517fffffffff0000000000000000000000000000000000000000000000000000000060e086901b1681526001600160a01b03938416600482015292909116602483015262ffffff166044820152606401602060405180830381865afa158015610663573d6000803e3d6000fd5b505050506040513d601f19601f820116820180604052508101906106879190611970565b90506001600160a01b038116156106cc57808484600381106106ab576106ab611915565b6001600160a01b039092166020929092020152826106c881611941565b9350505b50806106d781611941565b91505061059b565b5060008167ffffffffffffffff8111156106fb576106fb61195a565b604051908082528060200260200182016040528015610724578160200160208202803683370190505b50905060005b828110156107855783816003811061074457610744611915565b602002015182828151811061075b5761075b611915565b6001600160a01b03909216602092830291909101909101528061077d81611941565b91505061072a565b509695505050505050565b81156107a9576107a38686868685610958565b506107b7565b6107b586858584610b91565b505b505050505050565b60006001600160a01b0384166108175760405162461bcd60e51b815260206004820152601460248201527f763320706f6f6c206973206e6f7420657869737400000000000000000000000060448201526064016102ae565b6000846001600160a01b0316633850c7bd6040518163ffffffff1660e01b815260040160e060405180830381865afa158015610857573d6000803e3d6000fd5b505050506040513d601f19601f8201168201806040525081019061087b919061199f565b5093955061089d9450859350670de0b6b3a76400009250889150879050610d4d565b9150505b9392505050565b6040517fe6a439050000000000000000000000000000000000000000000000000000000081526001600160a01b03838116600483015282811660248301526000917f00000000000000000000000000000000000000000000000000000000000000009091169063e6a4390590604401602060405180830381865afa158015610934573d6000803e3d6000fd5b505050506040513d601f19601f820116820180604052508101906108a19190611970565b600061096684833089610e88565b610992847f00000000000000000000000000000000000000000000000000000000000000006000610f3f565b6109bd847f000000000000000000000000000000000000000000000000000000000000000088610f3f565b60008590506000604051806101000160405280876001600160a01b03168152602001866001600160a01b03168152602001836001600160a01b031663ddca3f436040518163ffffffff1660e01b8152600401602060405180830381865afa158015610a2c573d6000803e3d6000fd5b505050506040513d601f19601f82011682018060405250810190610a509190611a3e565b62ffffff168152602001856001600160a01b031681526020014281526020018981526020016000815260200160006001600160a01b031681525090507f00000000000000000000000000000000000000000000000000000000000000006001600160a01b031663414bf389826040518263ffffffff1660e01b8152600401610b4291906000610100820190506001600160a01b0380845116835280602085015116602084015262ffffff60408501511660408401528060608501511660608401526080840151608084015260a084015160a084015260c084015160c08401528060e08501511660e08401525092915050565b6020604051808303816000875af1158015610b61573d6000803e3d6000fd5b505050506040513d601f19601f82011682018060405250810190610b8591906118fc565b98975050505050505050565b6000610b9f84833088610e88565b610bcb847f00000000000000000000000000000000000000000000000000000000000000006000610f3f565b610bf6847f000000000000000000000000000000000000000000000000000000000000000087610f3f565b6040805160028082526060820183526000926020830190803683370190505090508481600081518110610c2b57610c2b611915565b60200260200101906001600160a01b031690816001600160a01b0316815250508381600181518110610c5f57610c5f611915565b6001600160a01b0392831660209182029290920101526040517f38ed17390000000000000000000000000000000000000000000000000000000081526000917f000000000000000000000000000000000000000000000000000000000000000016906338ed173990610cdd908a90859087908a904290600401611a63565b6000604051808303816000875af1158015610cfc573d6000803e3d6000fd5b505050506040513d6000823e601f3d908101601f19168201604052610d249190810190611a9f565b905080600081518110610d3957610d39611915565b602002602001015192505050949350505050565b600080610d5986611092565b90506fffffffffffffffffffffffffffffffff6001600160a01b03821611610dfa576000610d906001600160a01b03831680611b51565b9050836001600160a01b0316856001600160a01b031610610dd157610dcc600160c01b876fffffffffffffffffffffffffffffffff16836113ce565b610df2565b610df281876fffffffffffffffffffffffffffffffff16600160c01b6113ce565b925050610e7f565b6000610e196001600160a01b03831680680100000000000000006113ce565b9050836001600160a01b0316856001600160a01b031610610e5a57610e55600160801b876fffffffffffffffffffffffffffffffff16836113ce565b610e7b565b610e7b81876fffffffffffffffffffffffffffffffff16600160801b6113ce565b9250505b50949350505050565b6040516001600160a01b0380851660248301528316604482015260648101829052610f399085907f23b872dd00000000000000000000000000000000000000000000000000000000906084015b60408051601f198184030181529190526020810180517bffffffffffffffffffffffffffffffffffffffffffffffffffffffff167fffffffff0000000000000000000000000000000000000000000000000000000090931692909217909152611480565b50505050565b801580610fd257506040517fdd62ed3e0000000000000000000000000000000000000000000000000000000081523060048201526001600160a01b03838116602483015284169063dd62ed3e90604401602060405180830381865afa158015610fac573d6000803e3d6000fd5b505050506040513d601f19601f82011682018060405250810190610fd091906118fc565b155b6110445760405162461bcd60e51b815260206004820152603660248201527f5361666545524332303a20617070726f76652066726f6d206e6f6e2d7a65726f60448201527f20746f206e6f6e2d7a65726f20616c6c6f77616e63650000000000000000000060648201526084016102ae565b6040516001600160a01b03831660248201526044810182905261108d9084907f095ea7b30000000000000000000000000000000000000000000000000000000090606401610ed5565b505050565b60008060008360020b126110a9578260020b6110b1565b8260020b6000035b9050620d89e88111156110f0576040517f2bc80f3a00000000000000000000000000000000000000000000000000000000815260040160405180910390fd5b60008160011660000361110757600160801b611119565b6ffffcb933bd6fad37aa2d162d1a5940015b70ffffffffffffffffffffffffffffffffff169050600282161561114d576ffff97272373d413259a46990580e213a0260801c5b600482161561116c576ffff2e50f5f656932ef12357cf3c7fdcc0260801c5b600882161561118b576fffe5caca7e10e4e61c3624eaa0941cd00260801c5b60108216156111aa576fffcb9843d60f6159c9db58835c9266440260801c5b60208216156111c9576fff973b41fa98c081472e6896dfb254c00260801c5b60408216156111e8576fff2ea16466c96a3843ec78b326b528610260801c5b6080821615611207576ffe5dee046a99a2a811c461f1969c30530260801c5b610100821615611227576ffcbe86c7900a88aedcffc83b479aa3a40260801c5b610200821615611247576ff987a7253ac413176f2b074cf7815e540260801c5b610400821615611267576ff3392b0822b70005940c7a398e4b70f30260801c5b610800821615611287576fe7159475a2c29b7443b29c7fa6e889d90260801c5b6110008216156112a7576fd097f3bdfd2022b8845ad8f792aa58250260801c5b6120008216156112c7576fa9f746462d870fdf8a65dc1f90e061e50260801c5b6140008216156112e7576f70d869a156d2a1b890bb3df62baf32f70260801c5b618000821615611307576f31be135f97d08fd981231505542fcfa60260801c5b62010000821615611328576f09aa508b5b7a84e1c677de54f3e99bc90260801c5b62020000821615611348576e5d6af8dedb81196699c329225ee6040260801c5b62040000821615611367576d2216e584f5fa1ea926041bedfe980260801c5b62080000821615611384576b048a170391f7dc42444e8fa20260801c5b60008460020b13156113a55780600019816113a1576113a1611b68565b0490505b6401000000008106156113b95760016113bc565b60005b60ff16602082901c0192505050919050565b600080806000198587098587029250828110838203039150508060000361140757600084116113fc57600080fd5b5082900490506108a1565b80841161141357600080fd5b6000848688096000868103871696879004966002600389028118808a02820302808a02820302808a02820302808a02820302808a02820302808a02909103029181900381900460010186841190950394909402919094039290920491909117919091029150509392505050565b60006114d5826040518060400160405280602081526020017f5361666545524332303a206c6f772d6c6576656c2063616c6c206661696c6564815250856001600160a01b03166115659092919063ffffffff16565b80519091501561108d57808060200190518101906114f39190611b7e565b61108d5760405162461bcd60e51b815260206004820152602a60248201527f5361666545524332303a204552433230206f7065726174696f6e20646964206e60448201527f6f7420737563636565640000000000000000000000000000000000000000000060648201526084016102ae565b6060611574848460008561157c565b949350505050565b6060824710156115f45760405162461bcd60e51b815260206004820152602660248201527f416464726573733a20696e73756666696369656e742062616c616e636520666f60448201527f722063616c6c000000000000000000000000000000000000000000000000000060648201526084016102ae565b600080866001600160a01b031685876040516116109190611bbf565b60006040518083038185875af1925050503d806000811461164d576040519150601f19603f3d011682016040523d82523d6000602084013e611652565b606091505b5091509150610e7b87838387606083156116cd5782516000036116c6576001600160a01b0385163b6116c65760405162461bcd60e51b815260206004820152601d60248201527f416464726573733a2063616c6c20746f206e6f6e2d636f6e747261637400000060448201526064016102ae565b5081611574565b61157483838151156116e25781518083602001fd5b8060405162461bcd60e51b81526004016102ae9190611bdb565b60405180606001604052806003906020820280368337509192915050565b6001600160a01b038116811461172f57600080fd5b50565b6000806040838503121561174557600080fd5b82356117508161171a565b915060208301356117608161171a565b809150509250929050565b600081518084526020808501945080840160005b838110156117a45781516001600160a01b03168752958201959082019060010161177f565b509495945050505050565b6020815260006108a1602083018461176b565b801515811461172f57600080fd5b60008060008060008060c087890312156117e957600080fd5b8635955060208701356117fb8161171a565b9450604087013561180b8161171a565b9350606087013561181b8161171a565b9250608087013561182b816117c2565b915060a087013561183b8161171a565b809150509295509295509295565b60008060006060848603121561185e57600080fd5b83356118698161171a565b925060208401356118798161171a565b915060408401356118898161171a565b809150509250925092565b80516dffffffffffffffffffffffffffff811681146118b257600080fd5b919050565b6000806000606084860312156118cc57600080fd5b6118d584611894565b92506118e360208501611894565b9150604084015163ffffffff8116811461188957600080fd5b60006020828403121561190e57600080fd5b5051919050565b634e487b7160e01b600052603260045260246000fd5b634e487b7160e01b600052601160045260246000fd5b6000600182016119535761195361192b565b5060010190565b634e487b7160e01b600052604160045260246000fd5b60006020828403121561198257600080fd5b81516108a18161171a565b805161ffff811681146118b257600080fd5b600080600080600080600060e0888a0312156119ba57600080fd5b87516119c58161171a565b8097505060208801518060020b81146119dd57600080fd5b95506119eb6040890161198d565b94506119f96060890161198d565b9350611a076080890161198d565b925060a088015160ff81168114611a1d57600080fd5b60c0890151909250611a2e816117c2565b8091505092959891949750929550565b600060208284031215611a5057600080fd5b815162ffffff811681146108a157600080fd5b85815284602082015260a060408201526000611a8260a083018661176b565b6001600160a01b0394909416606083015250608001529392505050565b60006020808385031215611ab257600080fd5b825167ffffffffffffffff80821115611aca57600080fd5b818501915085601f830112611ade57600080fd5b815181811115611af057611af061195a565b8060051b604051601f19603f83011681018181108582111715611b1557611b1561195a565b604052918252848201925083810185019188831115611b3357600080fd5b938501935b82851015610b8557845184529385019392850192611b38565b80820281158282048414176103f2576103f261192b565b634e487b7160e01b600052601260045260246000fd5b600060208284031215611b9057600080fd5b81516108a1816117c2565b60005b83811015611bb6578181015183820152602001611b9e565b50506000910152565b60008251611bd1818460208701611b9b565b9190910192915050565b6020815260008251806020840152611bfa816040850160208701611b9b565b601f01601f1916919091016040019291505056fea2646970667358221220a9bb946767e5cc1e19b88815d83a1a94c571067b74255d1bb22c974d96a8f52e64736f6c63430008120033",
  "linkReferences": {},
  "deployedLinkReferences": {}
}